{
  "transactions": [
    {
      "hash": "0xc5e43d9c0100883e2caaf92800d8e17969878ab1b36f0e2f30ae1b9df26d73ca",
      "transactionType": "CALL",
      "contractName": null,
      "contractAddress": "0x000000000003193FAcb32D1C120719892B7AE977",
      "function": "transferOwnership(address)",
      "arguments": ["0x2b4813aDA463bAcE516160E25A65dD211c8E9135"],
      "transaction": {
        "type": "0x02",
        "from": "0x35da762a35fcb3160738eecd60fa18438c273d5e",
        "to": "0x000000000003193facb32d1c120719892b7ae977",
        "gas": "0xa3b9",
        "value": "0x0",
        "data": "0xf2fde38b0000000000000000000000002b4813ada463bace516160e25a65dd211c8e9135",
        "nonce": "0xa",
        "accessList": []
      },
      "additionalContracts": [],
      "isFixedGasLimit": false
    }
  ],
  "receipts": [],
  "libraries": [],
  "pending": [
    "0xc5e43d9c0100883e2caaf92800d8e17969878ab1b36f0e2f30ae1b9df26d73ca"
  ],
  "returns": {},
  "timestamp": 1708670337,
  "chain": 43114,
  "multi": false,
  "commit": "690d24e61"
}
