{
  "transactions": [
    {
      "hash": "0x597930fb440d84ad184331b7c0c07cf246b10deccb314d8250b05b8804d69147",
      "transactionType": "CALL",
      "contractName": null,
      "contractAddress": "0x000000000003193FAcb32D1C120719892B7AE977",
      "function": "addStake(uint32)",
      "arguments": ["86400"],
      "transaction": {
        "type": "0x00",
        "from": "0x35da762a35fcb3160738eecd60fa18438c273d5e",
        "to": "0x000000000003193facb32d1c120719892b7ae977",
        "gas": "0x159c5",
        "value": "0xde0b6b3a7640000",
        "data": "0x0396cb600000000000000000000000000000000000000000000000000000000000015180",
        "nonce": "0x3"
      },
      "additionalContracts": [],
      "isFixedGasLimit": false
    }
  ],
  "receipts": [
    {
      "transactionHash": "0x597930fb440d84ad184331b7c0c07cf246b10deccb314d8250b05b8804d69147",
      "transactionIndex": "0x8",
      "blockHash": "0xeff66e23644e77b8c4dc44e3394391776d9656b3902b6bc283dde9e547a762ac",
      "blockNumber": "0x16fa3f4",
      "from": "0x35da762a35FCb3160738EeCd60fa18438C273D5E",
      "to": "0x000000000003193FAcb32D1C120719892B7AE977",
      "cumulativeGasUsed": "0x18ebb6",
      "gasUsed": "0xfa55",
      "contractAddress": null,
      "logs": [
        {
          "address": "0x5FF137D4b0FDCD49DcA30c7CF57E578a026d2789",
          "topics": [
            "0xa5ae833d0bb1dcd632d98a8b70973e8516812898e19bf27b70071ebc8dc52c01",
            "0x000000000000000000000000000000000003193facb32d1c120719892b7ae977"
          ],
          "data": "0x0000000000000000000000000000000000000000000000000de0b6b3a76400000000000000000000000000000000000000000000000000000000000000015180",
          "blockHash": "0xeff66e23644e77b8c4dc44e3394391776d9656b3902b6bc283dde9e547a762ac",
          "blockNumber": "0x16fa3f4",
          "transactionHash": "0x597930fb440d84ad184331b7c0c07cf246b10deccb314d8250b05b8804d69147",
          "transactionIndex": "0x8",
          "logIndex": "0x12",
          "removed": false
        }
      ],
      "status": "0x1",
      "logsBloom": "0x00000000000000000000000000000000000000000000000000000000000000000000000000000000000200000000000000100000200000000000000000002000000000000000000000000000000000000000000000000000000000004000000000000000080000000000000000000000000000000000000000000000000000000000000000000000000000000000000000000000000000000000000000000000000000000000000000000000000000000000000000000000000000000000000000000000000000000000000000000000000040000000000000000000000000000100000000000000000000000000000000000200000000000000000000000000",
      "type": "0x0",
      "effectiveGasPrice": "0x2540be400"
    }
  ],
  "libraries": [],
  "pending": [],
  "returns": {},
  "timestamp": 1708138667,
  "chain": 42220,
  "multi": false,
  "commit": "0b93e5188"
}
