{
  "transactions": [
    {
      "hash": "0x597930fb440d84ad184331b7c0c07cf246b10deccb314d8250b05b8804d69147",
      "transactionType": "CALL",
      "contractName": null,
      "contractAddress": "0x000000000003193FAcb32D1C120719892B7AE977",
      "function": "addStake(uint32)",
      "arguments": ["86400"],
      "transaction": {
        "type": "0x00",
        "from": "0x35da762a35fcb3160738eecd60fa18438c273d5e",
        "to": "0x000000000003193facb32d1c120719892b7ae977",
        "gas": "0x159c5",
        "value": "0xde0b6b3a7640000",
        "data": "0x0396cb600000000000000000000000000000000000000000000000000000000000015180",
        "nonce": "0x3"
      },
      "additionalContracts": [],
      "isFixedGasLimit": false
    }
  ],
  "receipts": [],
  "libraries": [],
  "pending": [
    "0x597930fb440d84ad184331b7c0c07cf246b10deccb314d8250b05b8804d69147"
  ],
  "returns": {},
  "timestamp": 1708138660,
  "chain": 42220,
  "multi": false,
  "commit": "0b93e5188"
}
