{
  "transactions": [
    {
      "hash": "0x443ab155cabc2df4d2f4ba53bd44afb9f78c21328908829fa79ed50bae3527dd",
      "transactionType": "CALL",
      "contractName": null,
      "contractAddress": "0x000000000003193FAcb32D1C120719892B7AE977",
      "function": "addStake(uint32)",
      "arguments": ["86400"],
      "transaction": {
        "type": "0x02",
        "from": "0x35da762a35fcb3160738eecd60fa18438c273d5e",
        "to": "0x000000000003193facb32d1c120719892b7ae977",
        "gas": "0x1cfcc",
        "value": "0x16345785d8a0000",
        "data": "0x0396cb600000000000000000000000000000000000000000000000000000000000015180",
        "nonce": "0x9",
        "accessList": []
      },
      "additionalContracts": [],
      "isFixedGasLimit": false
    }
  ],
  "receipts": [
    {
      "transactionHash": "0x443ab155cabc2df4d2f4ba53bd44afb9f78c21328908829fa79ed50bae3527dd",
      "transactionIndex": "0x2",
      "blockHash": "0x1919248229592c507428042b69e2aaa99767d1093db36bf0d0b21605e0e59089",
      "blockNumber": "0x6e3b601",
      "from": "0x35da762a35FCb3160738EeCd60fa18438C273D5E",
      "to": "0x000000000003193FAcb32D1C120719892B7AE977",
      "cumulativeGasUsed": "0x275c8",
      "gasUsed": "0x13d21",
      "contractAddress": null,
      "logs": [
        {
          "address": "0x5FF137D4b0FDCD49DcA30c7CF57E578a026d2789",
          "topics": [
            "0xa5ae833d0bb1dcd632d98a8b70973e8516812898e19bf27b70071ebc8dc52c01",
            "0x000000000000000000000000000000000003193facb32d1c120719892b7ae977"
          ],
          "data": "0x000000000000000000000000000000000000000000000000016345785d8a00000000000000000000000000000000000000000000000000000000000000015180",
          "blockHash": "0x1919248229592c507428042b69e2aaa99767d1093db36bf0d0b21605e0e59089",
          "blockNumber": "0x6e3b601",
          "transactionHash": "0x443ab155cabc2df4d2f4ba53bd44afb9f78c21328908829fa79ed50bae3527dd",
          "transactionIndex": "0x2",
          "logIndex": "0x1",
          "removed": false
        }
      ],
      "status": "0x1",
      "logsBloom": "0x00000000000000000000000000000000000000000000000000000000000000000000000000000000000200000000000000100000200000000000000000002000000000000000000000000000000000000000000000000000000000004000000000000000080000000000000000000000000000000000000000000000000000000000000000000000000000000000000000000000000000000000000000000000000000000000000000000000000000000000000000000000000000000000000000000000000000000000000000000000000040000000000000000000000000000100000000000000000000000000000000000200000000000000000000000000",
      "type": "0x2",
      "effectiveGasPrice": "0xb33b194e"
    }
  ],
  "libraries": [],
  "pending": [],
  "returns": {},
  "timestamp": 1706771904,
  "chain": 10,
  "multi": false,
  "commit": "28827da98"
}
