{
  "transactions": [
    {
      "hash": "0xb6c62d72ebc22a948f0d03a6a24627e68743756e24d745b94e2ddd06f2b5dcc8",
      "transactionType": "CALL",
      "contractName": null,
      "contractAddress": "0x000000000003193FAcb32D1C120719892B7AE977",
      "function": "transferOwnership(address)",
      "arguments": ["0x2b4813aDA463bAcE516160E25A65dD211c8E9135"],
      "transaction": {
        "type": "0x00",
        "from": "0x35da762a35fcb3160738eecd60fa18438c273d5e",
        "to": "0x000000000003193facb32d1c120719892b7ae977",
        "gas": "0xa3b9",
        "value": "0x0",
        "data": "0xf2fde38b0000000000000000000000002b4813ada463bace516160e25a65dd211c8e9135",
        "nonce": "0x4"
      },
      "additionalContracts": [],
      "isFixedGasLimit": false
    }
  ],
  "receipts": [
    {
      "transactionHash": "0xb6c62d72ebc22a948f0d03a6a24627e68743756e24d745b94e2ddd06f2b5dcc8",
      "transactionIndex": "0x2",
      "blockHash": "0xbb4c661b0874aa613241ac7ef0bd1b12c37b1c4610834c1962f3448d1dc83767",
      "blockNumber": "0x1714345",
      "from": "0x35da762a35FCb3160738EeCd60fa18438C273D5E",
      "to": "0x000000000003193FAcb32D1C120719892B7AE977",
      "cumulativeGasUsed": "0x43297",
      "gasUsed": "0x6ff3",
      "contractAddress": null,
      "logs": [
        {
          "address": "0x000000000003193FAcb32D1C120719892B7AE977",
          "topics": [
            "0x8be0079c531659141344cd1fd0a4f28419497f9722a3daafe3b4186f6b6457e0",
            "0x00000000000000000000000035da762a35fcb3160738eecd60fa18438c273d5e",
            "0x0000000000000000000000002b4813ada463bace516160e25a65dd211c8e9135"
          ],
          "data": "0x",
          "blockHash": "0xbb4c661b0874aa613241ac7ef0bd1b12c37b1c4610834c1962f3448d1dc83767",
          "blockNumber": "0x1714345",
          "transactionHash": "0xb6c62d72ebc22a948f0d03a6a24627e68743756e24d745b94e2ddd06f2b5dcc8",
          "transactionIndex": "0x2",
          "logIndex": "0x4",
          "removed": false
        }
      ],
      "status": "0x1",
      "logsBloom": "0x10000000000000000000000000000000000000000000000000800000000000000000000000000000000000000000000000000000000000000000000000000000000000000000000000000000000000000001000000000000000000000000000000000200000000000000000000000000000000000000010000000000000000400000000000000001000000000000200000000000000000000000000000000000000000000000000000000000000000000000020000000000000000000000000000000000000000008000080000000000000000000000000000000000000000000000000000000000000000000000010000000000000000000000000000000000",
      "type": "0x0",
      "effectiveGasPrice": "0x2540be400"
    }
  ],
  "libraries": [],
  "pending": [],
  "returns": {},
  "timestamp": 1708670316,
  "chain": 42220,
  "multi": false,
  "commit": "690d24e61"
}
