{
  "transactions": [
    {
      "hash": "0x7829ae650e5b920c9f2a349b41c28529c62db663478da65063a492caeecae519",
      "transactionType": "CALL",
      "contractName": null,
      "contractAddress": "0x000000000003193FAcb32D1C120719892B7AE977",
      "function": "addStake(uint32)",
      "arguments": ["86400"],
      "transaction": {
        "type": "0x02",
        "from": "0x35da762a35fcb3160738eecd60fa18438c273d5e",
        "to": "0x000000000003193facb32d1c120719892b7ae977",
        "gas": "0x1cfcc",
        "value": "0xde0b6b3a7640000",
        "data": "0x0396cb600000000000000000000000000000000000000000000000000000000000015180",
        "nonce": "0x4",
        "accessList": []
      },
      "additionalContracts": [],
      "isFixedGasLimit": false
    }
  ],
  "receipts": [
    {
      "transactionHash": "0x7829ae650e5b920c9f2a349b41c28529c62db663478da65063a492caeecae519",
      "transactionIndex": "0x2",
      "blockHash": "0x67639414bc9288c1f84c97c72cd213898a6cf80c215fedfeadf5ea919a2057b4",
      "blockNumber": "0x99a95d",
      "from": "0x35da762a35FCb3160738EeCd60fa18438C273D5E",
      "to": "0x000000000003193FAcb32D1C120719892B7AE977",
      "cumulativeGasUsed": "0x2466a",
      "gasUsed": "0x13d21",
      "contractAddress": null,
      "logs": [
        {
          "address": "0x5FF137D4b0FDCD49DcA30c7CF57E578a026d2789",
          "topics": [
            "0xa5ae833d0bb1dcd632d98a8b70973e8516812898e19bf27b70071ebc8dc52c01",
            "0x000000000000000000000000000000000003193facb32d1c120719892b7ae977"
          ],
          "data": "0x0000000000000000000000000000000000000000000000000de0b6b3a76400000000000000000000000000000000000000000000000000000000000000015180",
          "blockHash": "0x67639414bc9288c1f84c97c72cd213898a6cf80c215fedfeadf5ea919a2057b4",
          "blockNumber": "0x99a95d",
          "transactionHash": "0x7829ae650e5b920c9f2a349b41c28529c62db663478da65063a492caeecae519",
          "transactionIndex": "0x2",
          "logIndex": "0x0",
          "removed": false
        }
      ],
      "status": "0x1",
      "logsBloom": "0x00000000000000000000000000000000000000000000000000000000000000000000000000000000000200000000000000100000200000000000000000002000000000000000000000000000000000000000000000000000000000004000000000000000080000000000000000000000000000000000000000000000000000000000000000000000000000000000000000000000000000000000000000000000000000000000000000000000000000000000000000000000000000000000000000000000000000000000000000000000000040000000000000000000000000000100000000000000000000000000000000000200000000000000000000000000",
      "type": "0x2",
      "effectiveGasPrice": "0xb2d05f13"
    }
  ],
  "libraries": [],
  "pending": [],
  "returns": {},
  "timestamp": 1706930088,
  "chain": 8453,
  "multi": false,
  "commit": "75ea80c9c"
}
