{
  "transactions": [
    {
      "hash": "0xb9152e6b260c6ce8b0b3e254b2db1a4d0c50f034acde82a3585d320fb24900e9",
      "transactionType": "CALL",
      "contractName": null,
      "contractAddress": "0x000000000003193FAcb32D1C120719892B7AE977",
      "function": "transferOwnership(address)",
      "arguments": ["0x2b4813aDA463bAcE516160E25A65dD211c8E9135"],
      "transaction": {
        "type": "0x02",
        "from": "0x35da762a35fcb3160738eecd60fa18438c273d5e",
        "to": "0x000000000003193facb32d1c120719892b7ae977",
        "gas": "0x9201",
        "value": "0x0",
        "data": "0xf2fde38b0000000000000000000000002b4813ada463bace516160e25a65dd211c8e9135",
        "nonce": "0x4",
        "accessList": []
      },
      "additionalContracts": [],
      "isFixedGasLimit": false
    }
  ],
  "receipts": [
    {
      "transactionHash": "0xb9152e6b260c6ce8b0b3e254b2db1a4d0c50f034acde82a3585d320fb24900e9",
      "transactionIndex": "0x3",
      "blockHash": "0xf6c523ea44ea7e32b1da41f99615daa18314925296b009fc7869a9bd9e98483c",
      "blockNumber": "0xff799b",
      "from": "0x35da762a35FCb3160738EeCd60fa18438C273D5E",
      "to": "0x000000000003193FAcb32D1C120719892B7AE977",
      "cumulativeGasUsed": "0x1e405",
      "gasUsed": "0x703a",
      "contractAddress": null,
      "logs": [
        {
          "address": "0x000000000003193FAcb32D1C120719892B7AE977",
          "topics": [
            "0x8be0079c531659141344cd1fd0a4f28419497f9722a3daafe3b4186f6b6457e0",
            "0x00000000000000000000000035da762a35fcb3160738eecd60fa18438c273d5e",
            "0x0000000000000000000000002b4813ada463bace516160e25a65dd211c8e9135"
          ],
          "data": "0x",
          "blockHash": "0xf6c523ea44ea7e32b1da41f99615daa18314925296b009fc7869a9bd9e98483c",
          "blockNumber": "0xff799b",
          "transactionHash": "0xb9152e6b260c6ce8b0b3e254b2db1a4d0c50f034acde82a3585d320fb24900e9",
          "transactionIndex": "0x3",
          "logIndex": "0x1",
          "removed": false
        }
      ],
      "status": "0x1",
      "logsBloom": "0x10000000000000000000000000000000000000000000000000800000000000000000000000000000000000000000000000000000000000000000000000000000000000000000000000000000000000000001000000000000000000000000000000000200000000000000000000000000000000000000010000000000000000400000000000000001000000000000200000000000000000000000000000000000000000000000000000000000000000000000020000000000000000000000000000000000000000008000080000000000000000000000000000000000000000000000000000000000000000000000010000000000000000000000000000000000",
      "type": "0x2",
      "effectiveGasPrice": "0x5f5e100"
    }
  ],
  "libraries": [],
  "pending": [],
  "returns": {},
  "timestamp": 1708669854,
  "chain": 421614,
  "multi": false,
  "commit": "690d24e61"
}
