{
  "transactions": [
    {
      "hash": "0x6d090fde7884ebd27c72093fa6a4d4a8043b48f0c96e604cfef328eac7e1534e",
      "transactionType": "CALL",
      "contractName": null,
      "contractAddress": "0x000000000003193FAcb32D1C120719892B7AE977",
      "function": "addStake(uint32)",
      "arguments": ["86400"],
      "transaction": {
        "type": "0x02",
        "from": "0x35da762a35fcb3160738eecd60fa18438c273d5e",
        "to": "0x000000000003193facb32d1c120719892b7ae977",
        "gas": "0x1cfcc",
        "value": "0xde0b6b3a7640000",
        "data": "0x0396cb600000000000000000000000000000000000000000000000000000000000015180",
        "nonce": "0xf",
        "accessList": []
      },
      "additionalContracts": [],
      "isFixedGasLimit": false
    }
  ],
  "receipts": [],
  "libraries": [],
  "pending": [
    "0x6d090fde7884ebd27c72093fa6a4d4a8043b48f0c96e604cfef328eac7e1534e"
  ],
  "returns": {},
  "timestamp": 1708364540,
  "chain": 168587773,
  "multi": false,
  "commit": "7dd2ac927"
}
