{
  "transactions": [
    {
      "hash": "0x6d090fde7884ebd27c72093fa6a4d4a8043b48f0c96e604cfef328eac7e1534e",
      "transactionType": "CALL",
      "contractName": null,
      "contractAddress": "0x000000000003193FAcb32D1C120719892B7AE977",
      "function": "addStake(uint32)",
      "arguments": ["86400"],
      "transaction": {
        "type": "0x02",
        "from": "0x35da762a35fcb3160738eecd60fa18438c273d5e",
        "to": "0x000000000003193facb32d1c120719892b7ae977",
        "gas": "0x1cfcc",
        "value": "0xde0b6b3a7640000",
        "data": "0x0396cb600000000000000000000000000000000000000000000000000000000000015180",
        "nonce": "0xf",
        "accessList": []
      },
      "additionalContracts": [],
      "isFixedGasLimit": false
    }
  ],
  "receipts": [
    {
      "transactionHash": "0x6d090fde7884ebd27c72093fa6a4d4a8043b48f0c96e604cfef328eac7e1534e",
      "transactionIndex": "0x1",
      "blockHash": "0xbc9436f5e3e99b77519b756dc6edd5a9666487aefba2d39bfbcf9a2ee3a6ebc8",
      "blockNumber": "0x1c0f50",
      "from": "0x35da762a35FCb3160738EeCd60fa18438C273D5E",
      "to": "0x000000000003193FAcb32D1C120719892B7AE977",
      "cumulativeGasUsed": "0x1f476",
      "gasUsed": "0x13d21",
      "contractAddress": null,
      "logs": [
        {
          "address": "0x5FF137D4b0FDCD49DcA30c7CF57E578a026d2789",
          "topics": [
            "0xa5ae833d0bb1dcd632d98a8b70973e8516812898e19bf27b70071ebc8dc52c01",
            "0x000000000000000000000000000000000003193facb32d1c120719892b7ae977"
          ],
          "data": "0x0000000000000000000000000000000000000000000000000de0b6b3a76400000000000000000000000000000000000000000000000000000000000000015180",
          "blockHash": "0xbc9436f5e3e99b77519b756dc6edd5a9666487aefba2d39bfbcf9a2ee3a6ebc8",
          "blockNumber": "0x1c0f50",
          "transactionHash": "0x6d090fde7884ebd27c72093fa6a4d4a8043b48f0c96e604cfef328eac7e1534e",
          "transactionIndex": "0x1",
          "logIndex": "0x0",
          "removed": false
        }
      ],
      "status": "0x1",
      "logsBloom": "0x00000000000000000000000000000000000000000000000000000000000000000000000000000000000200000000000000100000200000000000000000002000000000000000000000000000000000000000000000000000000000004000000000000000080000000000000000000000000000000000000000000000000000000000000000000000000000000000000000000000000000000000000000000000000000000000000000000000000000000000000000000000000000000000000000000000000000000000000000000000000040000000000000000000000000000100000000000000000000000000000000000200000000000000000000000000",
      "type": "0x2",
      "effectiveGasPrice": "0xb2d0635c"
    }
  ],
  "libraries": [],
  "pending": [],
  "returns": {},
  "timestamp": 1708364547,
  "chain": 168587773,
  "multi": false,
  "commit": "7dd2ac927"
}
