{
  "transactions": [
    {
      "hash": "0xd71854e63d7c13e772c104fed441f96affd5617bd20455a8c783b910048cb51a",
      "transactionType": "CALL",
      "contractName": null,
      "contractAddress": "0x000000000003193FAcb32D1C120719892B7AE977",
      "function": "addStake(uint32)",
      "arguments": ["86400"],
      "transaction": {
        "type": "0x00",
        "from": "0x35da762a35fcb3160738eecd60fa18438c273d5e",
        "to": "0x000000000003193facb32d1c120719892b7ae977",
        "gas": "0x1cfcc",
        "value": "0xde0b6b3a7640000",
        "data": "0x0396cb600000000000000000000000000000000000000000000000000000000000015180",
        "nonce": "0x3"
      },
      "additionalContracts": [],
      "isFixedGasLimit": false
    }
  ],
  "receipts": [],
  "libraries": [],
  "pending": [
    "0xd71854e63d7c13e772c104fed441f96affd5617bd20455a8c783b910048cb51a"
  ],
  "returns": {},
  "timestamp": 1707409439,
  "chain": 56,
  "multi": false,
  "commit": "be071dc80"
}
