{
  "transactions": [
    {
      "hash": "0xc1e85ea5c2310359f91a003043e0249fcb799d41290e0f06a02039a1a9ab3b3b",
      "transactionType": "CALL",
      "contractName": null,
      "contractAddress": "0x000000000003193FAcb32D1C120719892B7AE977",
      "function": "transferOwnership(address)",
      "arguments": ["0x2b4813aDA463bAcE516160E25A65dD211c8E9135"],
      "transaction": {
        "type": "0x02",
        "from": "0x35da762a35fcb3160738eecd60fa18438c273d5e",
        "to": "0x000000000003193facb32d1c120719892b7ae977",
        "gas": "0xa3b9",
        "value": "0x0",
        "data": "0xf2fde38b0000000000000000000000002b4813ada463bace516160e25a65dd211c8e9135",
        "nonce": "0x11",
        "accessList": []
      },
      "additionalContracts": [],
      "isFixedGasLimit": false
    }
  ],
  "receipts": [
    {
      "transactionHash": "0xc1e85ea5c2310359f91a003043e0249fcb799d41290e0f06a02039a1a9ab3b3b",
      "transactionIndex": "0x1",
      "blockHash": "0xc7de294175277972cfcf431e4fb613b6cea0cf334f83ad0e3db7cb302d1a925e",
      "blockNumber": "0x1e64a0",
      "from": "0x35da762a35FCb3160738EeCd60fa18438C273D5E",
      "to": "0x000000000003193FAcb32D1C120719892B7AE977",
      "cumulativeGasUsed": "0x1273c",
      "gasUsed": "0x6ff3",
      "contractAddress": null,
      "logs": [
        {
          "address": "0x000000000003193FAcb32D1C120719892B7AE977",
          "topics": [
            "0x8be0079c531659141344cd1fd0a4f28419497f9722a3daafe3b4186f6b6457e0",
            "0x00000000000000000000000035da762a35fcb3160738eecd60fa18438c273d5e",
            "0x0000000000000000000000002b4813ada463bace516160e25a65dd211c8e9135"
          ],
          "data": "0x",
          "blockHash": "0xc7de294175277972cfcf431e4fb613b6cea0cf334f83ad0e3db7cb302d1a925e",
          "blockNumber": "0x1e64a0",
          "transactionHash": "0xc1e85ea5c2310359f91a003043e0249fcb799d41290e0f06a02039a1a9ab3b3b",
          "transactionIndex": "0x1",
          "logIndex": "0x0",
          "removed": false
        }
      ],
      "status": "0x1",
      "logsBloom": "0x10000000000000000000000000000000000000000000000000800000000000000000000000000000000000000000000000000000000000000000000000000000000000000000000000000000000000000001000000000000000000000000000000000200000000000000000000000000000000000000010000000000000000400000000000000001000000000000200000000000000000000000000000000000000000000000000000000000000000000000020000000000000000000000000000000000000000008000080000000000000000000000000000000000000000000000000000000000000000000000010000000000000000000000000000000000",
      "type": "0x2",
      "effectiveGasPrice": "0xb4f7db4c"
    }
  ],
  "libraries": [],
  "pending": [],
  "returns": {},
  "timestamp": 1708670370,
  "chain": 168587773,
  "multi": false,
  "commit": "690d24e61"
}
