{
  "transactions": [
    {
      "hash": "0xcae71ccde6bbe761d48397bfb3a39ec721877a15a83b6cdee87e0bac383f0cf4",
      "transactionType": "CALL",
      "contractName": null,
      "contractAddress": "0x000000000003193FAcb32D1C120719892B7AE977",
      "function": "addStake(uint32)",
      "arguments": ["86400"],
      "transaction": {
        "type": "0x02",
        "from": "0x35da762a35fcb3160738eecd60fa18438c273d5e",
        "to": "0x000000000003193facb32d1c120719892b7ae977",
        "gas": "0x159c5",
        "value": "0xde0b6b3a7640000",
        "data": "0x0396cb600000000000000000000000000000000000000000000000000000000000015180",
        "nonce": "0x8",
        "accessList": []
      },
      "additionalContracts": [],
      "isFixedGasLimit": false
    }
  ],
  "receipts": [
    {
      "transactionHash": "0xcae71ccde6bbe761d48397bfb3a39ec721877a15a83b6cdee87e0bac383f0cf4",
      "transactionIndex": "0x1",
      "blockHash": "0x7f8d0bc20dc4a3fc0a6b04a970d09a38a5ca4be9befbd629eed40d4e35f4ce06",
      "blockNumber": "0x1ebd627",
      "from": "0x35da762a35FCb3160738EeCd60fa18438C273D5E",
      "to": "0x000000000003193FAcb32D1C120719892B7AE977",
      "cumulativeGasUsed": "0x4d754",
      "gasUsed": "0xfa55",
      "contractAddress": null,
      "logs": [
        {
          "address": "0x5FF137D4b0FDCD49DcA30c7CF57E578a026d2789",
          "topics": [
            "0xa5ae833d0bb1dcd632d98a8b70973e8516812898e19bf27b70071ebc8dc52c01",
            "0x000000000000000000000000000000000003193facb32d1c120719892b7ae977"
          ],
          "data": "0x0000000000000000000000000000000000000000000000000de0b6b3a76400000000000000000000000000000000000000000000000000000000000000015180",
          "blockHash": "0x7f8d0bc20dc4a3fc0a6b04a970d09a38a5ca4be9befbd629eed40d4e35f4ce06",
          "blockNumber": "0x1ebd627",
          "transactionHash": "0xcae71ccde6bbe761d48397bfb3a39ec721877a15a83b6cdee87e0bac383f0cf4",
          "transactionIndex": "0x1",
          "logIndex": "0x3c",
          "removed": false
        }
      ],
      "status": "0x1",
      "logsBloom": "0x00000000000000000000000000000000000000000000000000000000000000000000000000000000000200000000000000100000200000000000000000002000000000000000000000000000000000000000000000000000000000004000000000000000080000000000000000000000000000000000000000000000000000000000000000000000000000000000000000000000000000000000000000000000000000000000000000000000000000000000000000000000000000000000000000000000000000000000000000000000000040000000000000000000000000000100000000000000000000000000000000000200000000000000000000000000",
      "type": "0x2",
      "effectiveGasPrice": "0xb2d1ca26"
    }
  ],
  "libraries": [],
  "pending": [],
  "returns": {},
  "timestamp": 1706776779,
  "chain": 100,
  "multi": false,
  "commit": "5584ac0f3"
}
