{
  "transactions": [
    {
      "hash": "0x3a30c5529dd3507f160812246f9a2b9635ca4ecd1477b1b8d68dfecfd08e2f97",
      "transactionType": "CALL",
      "contractName": null,
      "contractAddress": "0x000000000003193FAcb32D1C120719892B7AE977",
      "function": "addStake(uint32)",
      "arguments": ["86400"],
      "transaction": {
        "type": "0x02",
        "from": "0x35da762a35fcb3160738eecd60fa18438c273d5e",
        "to": "0x000000000003193facb32d1c120719892b7ae977",
        "gas": "0x1cfcc",
        "value": "0xde0b6b3a7640000",
        "data": "0x0396cb600000000000000000000000000000000000000000000000000000000000015180",
        "nonce": "0x3",
        "accessList": []
      },
      "additionalContracts": [],
      "isFixedGasLimit": false
    }
  ],
  "receipts": [],
  "libraries": [],
  "pending": [
    "0x3a30c5529dd3507f160812246f9a2b9635ca4ecd1477b1b8d68dfecfd08e2f97"
  ],
  "returns": {},
  "timestamp": 1707409553,
  "chain": 43114,
  "multi": false,
  "commit": "be071dc80"
}
