{
  "transactions": [
    {
      "hash": "0xe01d6e5361ade0e4ed77e0e9fdb067e62390269791f0cbf9fd335c4a553727bd",
      "transactionType": "CALL",
      "contractName": null,
      "contractAddress": "0x000000000003193FAcb32D1C120719892B7AE977",
      "function": "transferOwnership(address)",
      "arguments": ["0x2b4813aDA463bAcE516160E25A65dD211c8E9135"],
      "transaction": {
        "type": "0x02",
        "from": "0x35da762a35fcb3160738eecd60fa18438c273d5e",
        "to": "0x000000000003193facb32d1c120719892b7ae977",
        "gas": "0xa3b9",
        "value": "0x0",
        "data": "0xf2fde38b0000000000000000000000002b4813ada463bace516160e25a65dd211c8e9135",
        "nonce": "0x11",
        "accessList": []
      },
      "additionalContracts": [],
      "isFixedGasLimit": false
    }
  ],
  "receipts": [
    {
      "transactionHash": "0xe01d6e5361ade0e4ed77e0e9fdb067e62390269791f0cbf9fd335c4a553727bd",
      "transactionIndex": "0x8c",
      "blockHash": "0xd2bcd0684a8484081f0041d6d5fd402d7731dfc7d0a0df1bb4bc37f26a045b59",
      "blockNumber": "0x335bba9",
      "from": "0x35da762a35FCb3160738EeCd60fa18438C273D5E",
      "to": "0x000000000003193FAcb32D1C120719892B7AE977",
      "cumulativeGasUsed": "0xccd6ae",
      "gasUsed": "0x6ff3",
      "contractAddress": null,
      "logs": [
        {
          "address": "0x000000000003193FAcb32D1C120719892B7AE977",
          "topics": [
            "0x8be0079c531659141344cd1fd0a4f28419497f9722a3daafe3b4186f6b6457e0",
            "0x00000000000000000000000035da762a35fcb3160738eecd60fa18438c273d5e",
            "0x0000000000000000000000002b4813ada463bace516160e25a65dd211c8e9135"
          ],
          "data": "0x",
          "blockHash": "0xd2bcd0684a8484081f0041d6d5fd402d7731dfc7d0a0df1bb4bc37f26a045b59",
          "blockNumber": "0x335bba9",
          "transactionHash": "0xe01d6e5361ade0e4ed77e0e9fdb067e62390269791f0cbf9fd335c4a553727bd",
          "transactionIndex": "0x8c",
          "logIndex": "0x1bf",
          "removed": false
        },
        {
          "address": "0x0000000000000000000000000000000000001010",
          "topics": [
            "0x4dfe1bbbcf077ddc3e01291eea2d5c70c2b422b415d95645b9adcfd678cb1d63",
            "0x0000000000000000000000000000000000000000000000000000000000001010",
            "0x00000000000000000000000035da762a35fcb3160738eecd60fa18438c273d5e",
            "0x00000000000000000000000067b94473d81d0cd00849d563c94d0432ac988b49"
          ],
          "data": "0x00000000000000000000000000000000000000000000000000030df4cd7044000000000000000000000000000000000000000000000000001a76eea53769c53200000000000000000000000000000000000000000000188c6329137f33f3bb260000000000000000000000000000000000000000000000001a73e0b069f9813200000000000000000000000000000000000000000000188c632c21740163ff26",
          "blockHash": "0xd2bcd0684a8484081f0041d6d5fd402d7731dfc7d0a0df1bb4bc37f26a045b59",
          "blockNumber": "0x335bba9",
          "transactionHash": "0xe01d6e5361ade0e4ed77e0e9fdb067e62390269791f0cbf9fd335c4a553727bd",
          "transactionIndex": "0x8c",
          "logIndex": "0x1c0",
          "removed": false
        }
      ],
      "status": "0x1",
      "logsBloom": "0x10000000000000000000000000000000000000000000000000800000000000000000000000000000000000000000000000008000000000000000000000000000000000000000000000000000000000800001000000000000000100000000000000000200000000000000000000000000000000000000010080000000000000400000000000000001000000000000200000000000000000000000000000000000200000000000000000000000000000000000020000000000000000000000004000800000000000008001080000008000000000000000000000100000000000000000020000000000000000000000010000000000000000000000000000100000",
      "type": "0x2",
      "effectiveGasPrice": "0x12993ea642"
    }
  ],
  "libraries": [],
  "pending": [],
  "returns": {},
  "timestamp": 1708670592,
  "chain": 137,
  "multi": false,
  "commit": "1d99cb000"
}
