{
  "transactions": [
    {
      "hash": "0xd1d97f528ad3e39ea351cd06ecadd0e4016b70ef0c9002abd5a0a7bef07a9bab",
      "transactionType": "CALL",
      "contractName": null,
      "contractAddress": "0x000000000003193FAcb32D1C120719892B7AE977",
      "function": "addStake(uint32)",
      "arguments": ["86400"],
      "transaction": {
        "type": "0x02",
        "from": "0x35da762a35fcb3160738eecd60fa18438c273d5e",
        "to": "0x000000000003193facb32d1c120719892b7ae977",
        "gas": "0x159c5",
        "value": "0xde0b6b3a7640000",
        "data": "0x0396cb600000000000000000000000000000000000000000000000000000000000015180",
        "nonce": "0x2",
        "accessList": []
      },
      "additionalContracts": [],
      "isFixedGasLimit": false
    }
  ],
  "receipts": [],
  "libraries": [],
  "pending": [
    "0xd1d97f528ad3e39ea351cd06ecadd0e4016b70ef0c9002abd5a0a7bef07a9bab"
  ],
  "returns": {},
  "timestamp": 1706792426,
  "chain": 84532,
  "multi": false,
  "commit": "cc91463b8"
}
