{
  "transactions": [
    {
      "hash": "0xd1d97f528ad3e39ea351cd06ecadd0e4016b70ef0c9002abd5a0a7bef07a9bab",
      "transactionType": "CALL",
      "contractName": null,
      "contractAddress": "0x000000000003193FAcb32D1C120719892B7AE977",
      "function": "addStake(uint32)",
      "arguments": ["86400"],
      "transaction": {
        "type": "0x02",
        "from": "0x35da762a35fcb3160738eecd60fa18438c273d5e",
        "to": "0x000000000003193facb32d1c120719892b7ae977",
        "gas": "0x159c5",
        "value": "0xde0b6b3a7640000",
        "data": "0x0396cb600000000000000000000000000000000000000000000000000000000000015180",
        "nonce": "0x2",
        "accessList": []
      },
      "additionalContracts": [],
      "isFixedGasLimit": false
    }
  ],
  "receipts": [
    {
      "transactionHash": "0xd1d97f528ad3e39ea351cd06ecadd0e4016b70ef0c9002abd5a0a7bef07a9bab",
      "transactionIndex": "0x1",
      "blockHash": "0x8955ccd9793cb63b8512bda74caa600abad4ee6da876b8c377d99c1cf7c381bb",
      "blockNumber": "0x541b86",
      "from": "0x35da762a35FCb3160738EeCd60fa18438C273D5E",
      "to": "0x000000000003193FAcb32D1C120719892B7AE977",
      "cumulativeGasUsed": "0x1f462",
      "gasUsed": "0xfa55",
      "contractAddress": null,
      "logs": [
        {
          "address": "0x5FF137D4b0FDCD49DcA30c7CF57E578a026d2789",
          "topics": [
            "0xa5ae833d0bb1dcd632d98a8b70973e8516812898e19bf27b70071ebc8dc52c01",
            "0x000000000000000000000000000000000003193facb32d1c120719892b7ae977"
          ],
          "data": "0x0000000000000000000000000000000000000000000000000de0b6b3a76400000000000000000000000000000000000000000000000000000000000000015180",
          "blockHash": "0x8955ccd9793cb63b8512bda74caa600abad4ee6da876b8c377d99c1cf7c381bb",
          "blockNumber": "0x541b86",
          "transactionHash": "0xd1d97f528ad3e39ea351cd06ecadd0e4016b70ef0c9002abd5a0a7bef07a9bab",
          "transactionIndex": "0x1",
          "logIndex": "0x0",
          "removed": false
        }
      ],
      "status": "0x1",
      "logsBloom": "0x00000000000000000000000000000000000000000000000000000000000000000000000000000000000200000000000000100000200000000000000000002000000000000000000000000000000000000000000000000000000000004000000000000000080000000000000000000000000000000000000000000000000000000000000000000000000000000000000000000000000000000000000000000000000000000000000000000000000000000000000000000000000000000000000000000000000000000000000000000000000040000000000000000000000000000100000000000000000000000000000000000200000000000000000000000000",
      "type": "0x2",
      "effectiveGasPrice": "0xb2d05f15"
    }
  ],
  "libraries": [],
  "pending": [],
  "returns": {},
  "timestamp": 1706792433,
  "chain": 84532,
  "multi": false,
  "commit": "cc91463b8"
}
