{
  "transactions": [
    {
      "hash": "0x754d1e163ad0d6285c71db88e44d4bd15ebffc267ce1676c36faeacf0bffe14b",
      "transactionType": "CALL",
      "contractName": null,
      "contractAddress": "0x000000000003193FAcb32D1C120719892B7AE977",
      "function": "transferOwnership(address)",
      "arguments": ["0x2b4813aDA463bAcE516160E25A65dD211c8E9135"],
      "transaction": {
        "type": "0x00",
        "from": "0x35da762a35fcb3160738eecd60fa18438c273d5e",
        "to": "0x000000000003193facb32d1c120719892b7ae977",
        "gas": "0xa3b9",
        "value": "0x0",
        "data": "0xf2fde38b0000000000000000000000002b4813ada463bace516160e25a65dd211c8e9135",
        "nonce": "0x5"
      },
      "additionalContracts": [],
      "isFixedGasLimit": false
    }
  ],
  "receipts": [
    {
      "transactionHash": "0x754d1e163ad0d6285c71db88e44d4bd15ebffc267ce1676c36faeacf0bffe14b",
      "transactionIndex": "0x3b",
      "blockHash": "0x7926b712ed0c385bd97e9f2c8804a8a6f5f60af51bf0b349c2c16aef25401ade",
      "blockNumber": "0x22b1ccd",
      "from": "0x35da762a35FCb3160738EeCd60fa18438C273D5E",
      "to": "0x000000000003193FAcb32D1C120719892B7AE977",
      "cumulativeGasUsed": "0x4cd9ba",
      "gasUsed": "0x6ff3",
      "contractAddress": null,
      "logs": [
        {
          "address": "0x000000000003193FAcb32D1C120719892B7AE977",
          "topics": [
            "0x8be0079c531659141344cd1fd0a4f28419497f9722a3daafe3b4186f6b6457e0",
            "0x00000000000000000000000035da762a35fcb3160738eecd60fa18438c273d5e",
            "0x0000000000000000000000002b4813ada463bace516160e25a65dd211c8e9135"
          ],
          "data": "0x",
          "blockHash": "0x7926b712ed0c385bd97e9f2c8804a8a6f5f60af51bf0b349c2c16aef25401ade",
          "blockNumber": "0x22b1ccd",
          "transactionHash": "0x754d1e163ad0d6285c71db88e44d4bd15ebffc267ce1676c36faeacf0bffe14b",
          "transactionIndex": "0x3b",
          "logIndex": "0x96",
          "removed": false
        }
      ],
      "status": "0x1",
      "logsBloom": "0x10000000000000000000000000000000000000000000000000800000000000000000000000000000000000000000000000000000000000000000000000000000000000000000000000000000000000000001000000000000000000000000000000000200000000000000000000000000000000000000010000000000000000400000000000000001000000000000200000000000000000000000000000000000000000000000000000000000000000000000020000000000000000000000000000000000000000008000080000000000000000000000000000000000000000000000000000000000000000000000010000000000000000000000000000000000",
      "type": "0x0",
      "effectiveGasPrice": "0xb2d05e00"
    }
  ],
  "libraries": [],
  "pending": [],
  "returns": {},
  "timestamp": 1708670062,
  "chain": 56,
  "multi": false,
  "commit": "690d24e61"
}
