{
  "transactions": [
    {
      "hash": "0xeca869ed0e749f54c2932ec9e0850fe42c80bafd82edbe0e10628ad9f3d1158f",
      "transactionType": "CALL",
      "contractName": null,
      "contractAddress": "0xa993F72FF792c50B530c781483659B26287D969F",
      "function": "transferOwnership(address)",
      "arguments": ["0xFbd80Fe5cE1ECe895845Fd131bd621e2B6A1345F"],
      "transaction": {
        "type": "0x02",
        "from": "0x35da762a35fcb3160738eecd60fa18438c273d5e",
        "to": "0xa993f72ff792c50b530c781483659b26287d969f",
        "gas": "0xa3b9",
        "value": "0x0",
        "data": "0xf2fde38b000000000000000000000000fbd80fe5ce1ece895845fd131bd621e2b6a1345f",
        "nonce": "0x25",
        "accessList": []
      },
      "additionalContracts": [],
      "isFixedGasLimit": false
    }
  ],
  "receipts": [
    {
      "transactionHash": "0xeca869ed0e749f54c2932ec9e0850fe42c80bafd82edbe0e10628ad9f3d1158f",
      "transactionIndex": "0xa",
      "blockHash": "0x8f93c09f85db06006cf3b41e6f66b37aba4d7b975e12bac5180fcc49e1d22e16",
      "blockNumber": "0x518d8f",
      "from": "0x35da762a35FCb3160738EeCd60fa18438C273D5E",
      "to": "0xa993F72FF792c50B530c781483659B26287D969F",
      "cumulativeGasUsed": "0xb21f6",
      "gasUsed": "0x6ff3",
      "contractAddress": null,
      "logs": [
        {
          "address": "0xa993F72FF792c50B530c781483659B26287D969F",
          "topics": [
            "0x8be0079c531659141344cd1fd0a4f28419497f9722a3daafe3b4186f6b6457e0",
            "0x00000000000000000000000035da762a35fcb3160738eecd60fa18438c273d5e",
            "0x000000000000000000000000fbd80fe5ce1ece895845fd131bd621e2b6a1345f"
          ],
          "data": "0x",
          "blockHash": "0x8f93c09f85db06006cf3b41e6f66b37aba4d7b975e12bac5180fcc49e1d22e16",
          "blockNumber": "0x518d8f",
          "transactionHash": "0xeca869ed0e749f54c2932ec9e0850fe42c80bafd82edbe0e10628ad9f3d1158f",
          "transactionIndex": "0xa",
          "logIndex": "0xb",
          "removed": false
        }
      ],
      "status": "0x1",
      "logsBloom": "0x00000000000000000000000000000000000000000000000000800800000000000000000000000000000000000000000000000000000000000000000000000000000000000000000000000000000000000001000080000000000000000000000000000000000000000000000000000000000000000000000000000000000000400000000000000001000000000000200000000000000000000000000000000200000000000000000000000000000000000000000000000000000000000000000000000000000000000000080000800000000000000000000000000000000000000000000000000000000000800000000000000000000000000010000000000000",
      "type": "0x2",
      "effectiveGasPrice": "0xc008df83"
    }
  ],
  "libraries": [],
  "pending": [],
  "returns": {},
  "timestamp": 1708656403,
  "chain": 11155111,
  "multi": false,
  "commit": "1db0d4566"
}
