{
  "transactions": [
    {
      "hash": "0xae568a76b1a77bd6d8e48f08c6f0fbf9f2395e22bcba2e1f37e6394e7fa003dc",
      "transactionType": "CALL",
      "contractName": null,
      "contractAddress": "0x000000000003193FAcb32D1C120719892B7AE977",
      "function": "transferOwnership(address)",
      "arguments": ["0x2b4813aDA463bAcE516160E25A65dD211c8E9135"],
      "transaction": {
        "type": "0x02",
        "from": "0x35da762a35fcb3160738eecd60fa18438c273d5e",
        "to": "0x000000000003193facb32d1c120719892b7ae977",
        "gas": "0xa3b9",
        "value": "0x0",
        "data": "0xf2fde38b0000000000000000000000002b4813ada463bace516160e25a65dd211c8e9135",
        "nonce": "0x6",
        "accessList": []
      },
      "additionalContracts": [],
      "isFixedGasLimit": false
    }
  ],
  "receipts": [
    {
      "transactionHash": "0xae568a76b1a77bd6d8e48f08c6f0fbf9f2395e22bcba2e1f37e6394e7fa003dc",
      "transactionIndex": "0x2",
      "blockHash": "0xe240e8b427564d428667d93140660b761b70d281a4328bc4a42419d7b47c4f4d",
      "blockNumber": "0x2c1a69a",
      "from": "0x35da762a35FCb3160738EeCd60fa18438C273D5E",
      "to": "0x000000000003193FAcb32D1C120719892B7AE977",
      "cumulativeGasUsed": "0x2e2bd",
      "gasUsed": "0x6ff3",
      "contractAddress": null,
      "logs": [
        {
          "address": "0x000000000003193FAcb32D1C120719892B7AE977",
          "topics": [
            "0x8be0079c531659141344cd1fd0a4f28419497f9722a3daafe3b4186f6b6457e0",
            "0x00000000000000000000000035da762a35fcb3160738eecd60fa18438c273d5e",
            "0x0000000000000000000000002b4813ada463bace516160e25a65dd211c8e9135"
          ],
          "data": "0x",
          "blockHash": "0xe240e8b427564d428667d93140660b761b70d281a4328bc4a42419d7b47c4f4d",
          "blockNumber": "0x2c1a69a",
          "transactionHash": "0xae568a76b1a77bd6d8e48f08c6f0fbf9f2395e22bcba2e1f37e6394e7fa003dc",
          "transactionIndex": "0x2",
          "logIndex": "0x2",
          "removed": false
        },
        {
          "address": "0x0000000000000000000000000000000000001010",
          "topics": [
            "0x4dfe1bbbcf077ddc3e01291eea2d5c70c2b422b415d95645b9adcfd678cb1d63",
            "0x0000000000000000000000000000000000000000000000000000000000001010",
            "0x00000000000000000000000035da762a35fcb3160738eecd60fa18438c273d5e",
            "0x000000000000000000000000cfef2a3dc244ef7d0fb93c45e762d671445c4569"
          ],
          "data": "0x00000000000000000000000000000000000000000000000000030df4cd704400000000000000000000000000000000000000000000000000056f924449309464000000000000000000000000000000000000000000000193ca13142a150a50ad000000000000000000000000000000000000000000000000056c844f7bc05064000000000000000000000000000000000000000000000193ca16221ee27a94ad",
          "blockHash": "0xe240e8b427564d428667d93140660b761b70d281a4328bc4a42419d7b47c4f4d",
          "blockNumber": "0x2c1a69a",
          "transactionHash": "0xae568a76b1a77bd6d8e48f08c6f0fbf9f2395e22bcba2e1f37e6394e7fa003dc",
          "transactionIndex": "0x2",
          "logIndex": "0x3",
          "removed": false
        }
      ],
      "status": "0x1",
      "logsBloom": "0x10000000010000000000000000000000000000000000000000800000000000000000000000000000000000000000000000008000000000000000000000000000000000000000000000000000000000800001000000000000020100000000000000000200000000000000000000000000000000000000010080000000000000400000000000000001000000000000200000000000000000000000000000000000200000000000000000000000000000000000020000000000000000000000004000000000000000008001080000000000000000000000000000100000000000000000000000000000000000000000010000000000000000000000040000100000",
      "type": "0x2",
      "effectiveGasPrice": "0x6fc23ac10"
    }
  ],
  "libraries": [],
  "pending": [],
  "returns": {},
  "timestamp": 1708669781,
  "chain": 80001,
  "multi": false,
  "commit": "690d24e61"
}
